{
  "contractName": "BiddingContract",
  "abi": [
    {
      "inputs": [
        {
          "internalType": "uint256",
          "name": "bidValue",
          "type": "uint256"
        }
      ],
      "stateMutability": "nonpayable",
      "type": "constructor"
    },
    {
      "inputs": [],
      "name": "current",
      "outputs": [
        {
          "internalType": "address",
          "name": "account",
          "type": "address"
        },
        {
          "internalType": "uint256",
          "name": "value",
          "type": "uint256"
        }
      ],
      "stateMutability": "view",
      "type": "function"
    },
    {
      "inputs": [],
      "name": "minBidValue",
      "outputs": [
        {
          "internalType": "uint256",
          "name": "",
          "type": "uint256"
        }
      ],
      "stateMutability": "view",
      "type": "function"
    },
    {
      "inputs": [],
      "name": "bid",
      "outputs": [],
      "stateMutability": "payable",
      "type": "function"
    }
  ],
  "bytecode": "0x608060405234801561001057600080fd5b50604051610516380380610516833981810160405281019061003291906100bd565b60008111610075576040517f08c379a000000000000000000000000000000000000000000000000000000000815260040161006c9061016d565b60405180910390fd5b806000819055505061018d565b600080fd5b6000819050919050565b61009a81610087565b81146100a557600080fd5b50565b6000815190506100b781610091565b92915050565b6000602082840312156100d3576100d2610082565b5b60006100e1848285016100a8565b91505092915050565b600082825260208201905092915050565b7f4d696e696d756d206269642076616c75652073686f756c64206265206869676860008201527f6572207468616e20300000000000000000000000000000000000000000000000602082015250565b60006101576029836100ea565b9150610162826100fb565b604082019050919050565b600060208201905081810360008301526101868161014a565b9050919050565b61037a8061019c6000396000f3fe6080604052600436106100345760003560e01c8063174efd12146100395780631998aeef146100645780639fa6a6e31461006e575b600080fd5b34801561004557600080fd5b5061004e61009a565b60405161005b91906101d6565b60405180910390f35b61006c6100a0565b005b34801561007a57600080fd5b5061008361018b565b604051610091929190610232565b60405180910390f35b60005481565b6000543410156100e5576040517f08c379a00000000000000000000000000000000000000000000000000000000081526004016100dc906102b8565b60405180910390fd5b600060018001541180156100fc5750600180015434105b1561013c576040517f08c379a000000000000000000000000000000000000000000000000000000000815260040161013390610324565b60405180910390fd5b33600160000160006101000a81548173ffffffffffffffffffffffffffffffffffffffff021916908373ffffffffffffffffffffffffffffffffffffffff160217905550346001800181905550565b60018060000160009054906101000a900473ffffffffffffffffffffffffffffffffffffffff16908060010154905082565b6000819050919050565b6101d0816101bd565b82525050565b60006020820190506101eb60008301846101c7565b92915050565b600073ffffffffffffffffffffffffffffffffffffffff82169050919050565b600061021c826101f1565b9050919050565b61022c81610211565b82525050565b60006040820190506102476000830185610223565b61025460208301846101c7565b9392505050565b600082825260208201905092915050565b7f4269642076616c756520746f6f206c6f77000000000000000000000000000000600082015250565b60006102a260118361025b565b91506102ad8261026c565b602082019050919050565b600060208201905081810360008301526102d181610295565b9050919050565b7f43757272656e742062696420697320686967686572207468616e20796f757273600082015250565b600061030e60208361025b565b9150610319826102d8565b602082019050919050565b6000602082019050818103600083015261033d81610301565b905091905056fea26469706673582212204b61e37a70c633be5a9ddf0f968530d9e23a5a910e0367eccb96214aaaa7811964736f6c634300080f0033",
  "immutableReferences": {},
  "source": "// SPDX-License-Identifier: MIT\npragma solidity >=0.4.22 <0.9.0;\n\ncontract BiddingContract {\n\n    struct currentBid {\n        address account;\n        uint256 value;\n    }\n    uint256 public minBidValue;\n    currentBid public current;\n\n    modifier minBid() {\n        require(msg.value >= minBidValue, \"Bid value too low\");\n        if (current.value > 0 && msg.value < current.value) {\n            revert(\"Current bid is higher than yours\");\n        } \n        _;\n    }\n\n    constructor(uint256 bidValue) {\n        require(bidValue > 0, \"Minimum bid value should be higher than 0\");\n        minBidValue = bidValue;\n    }\n\n    function bid() public payable minBid {\n        current.account = msg.sender;\n        current.value = msg.value;\n    }\n}",
  "sourcePath": "/home/isma/Desktop/code/blockchain/test-smartcontracts/contracts/BiddingContract.sol",
  "compiler": {
    "name": "solc",
    "version": "0.8.15+commit.e14f2714.Emscripten.clang"
  },
  "schemaVersion": "3.4.8",
  "updatedAt": "2022-08-11T07:31:23.673Z",
  "devdoc": {
    "kind": "dev",
    "methods": {},
    "version": 1
  },
  "userdoc": {
    "kind": "user",
    "methods": {},
    "version": 1
  }
}