{
  "contractName": "EnumContract",
  "abi": [
    {
      "inputs": [
        {
          "internalType": "uint8",
          "name": "arg",
          "type": "uint8"
        }
      ],
      "name": "getNames",
      "outputs": [
        {
          "internalType": "string",
          "name": "",
          "type": "string"
        }
      ],
      "stateMutability": "pure",
      "type": "function"
    }
  ],
  "bytecode": "0x608060405234801561001057600080fd5b50610378806100206000396000f3fe608060405234801561001057600080fd5b506004361061002b5760003560e01c8063575e3ab314610030575b600080fd5b61004a6004803603810190610045919061022b565b610060565b60405161005791906102f1565b60405180910390f35b60606000600381111561007657610075610313565b5b60ff168260ff16036100bf576040518060400160405280600381526020017f4a6f65000000000000000000000000000000000000000000000000000000000081525090506101e8565b600160038111156100d3576100d2610313565b5b60ff168260ff160361011c576040518060400160405280600681526020017f4272616e6479000000000000000000000000000000000000000000000000000081525090506101e8565b600260038111156101305761012f610313565b5b60ff168260ff1603610179576040518060400160405280600681526020017f526163686e61000000000000000000000000000000000000000000000000000081525090506101e8565b60038081111561018c5761018b610313565b5b60ff168260ff16036101d5576040518060400160405280600781526020017f4a6573736963610000000000000000000000000000000000000000000000000081525090506101e8565b6040518060200160405280600081525090505b919050565b600080fd5b600060ff82169050919050565b610208816101f2565b811461021357600080fd5b50565b600081359050610225816101ff565b92915050565b600060208284031215610241576102406101ed565b5b600061024f84828501610216565b91505092915050565b600081519050919050565b600082825260208201905092915050565b60005b83811015610292578082015181840152602081019050610277565b838111156102a1576000848401525b50505050565b6000601f19601f8301169050919050565b60006102c382610258565b6102cd8185610263565b93506102dd818560208601610274565b6102e6816102a7565b840191505092915050565b6000602082019050818103600083015261030b81846102b8565b905092915050565b7f4e487b7100000000000000000000000000000000000000000000000000000000600052602160045260246000fdfea2646970667358221220aaca1ff9443671e54ef3cc2ccfa4316eca1474a67819be437d3fadf8157293a764736f6c634300080f0033",
  "immutableReferences": {},
  "source": "// SPDX-License-Identifier: MIT\npragma solidity >=0.4.22 <0.9.0;\n\ncontract EnumContract {\n\n    // Create an Enumeration\n    enum names {Joe, Brandy, Rachna, Jessica}\n\n    // get the value at specified index\n    function getNames(uint8 arg) public pure returns (string memory){\n        if(arg == uint8(names.Joe)) return 'Joe';\n        if(arg == uint8(names.Brandy)) return 'Brandy';\n        if(arg == uint8(names.Rachna)) return 'Rachna';\n        if(arg == uint8(names.Jessica)) return 'Jessica';\n        return '';\n    }\n}",
  "sourcePath": "/home/isma/Desktop/code/blockchain/test-smartcontracts/contracts/EnumContract.sol",
  "compiler": {
    "name": "solc",
    "version": "0.8.15+commit.e14f2714.Emscripten.clang"
  },
  "schemaVersion": "3.4.8",
  "updatedAt": "2022-08-10T15:43:13.721Z",
  "devdoc": {
    "kind": "dev",
    "methods": {},
    "version": 1
  },
  "userdoc": {
    "kind": "user",
    "methods": {},
    "version": 1
  }
}