{
  "contractName": "ExceptionsContract",
  "abi": [
    {
      "inputs": [],
      "name": "lastCaller",
      "outputs": [
        {
          "internalType": "string",
          "name": "",
          "type": "string"
        }
      ],
      "stateMutability": "view",
      "type": "function"
    },
    {
      "inputs": [
        {
          "internalType": "string",
          "name": "name",
          "type": "string"
        }
      ],
      "name": "revertBehavior",
      "outputs": [
        {
          "internalType": "bool",
          "name": "",
          "type": "bool"
        }
      ],
      "stateMutability": "nonpayable",
      "type": "function"
    }
  ],
  "bytecode": "0x60806040526040518060400160405280600481526020017f6e6f6e6500000000000000000000000000000000000000000000000000000000815250600090816200004a9190620002d9565b503480156200005857600080fd5b50620003c0565b600081519050919050565b7f4e487b7100000000000000000000000000000000000000000000000000000000600052604160045260246000fd5b7f4e487b7100000000000000000000000000000000000000000000000000000000600052602260045260246000fd5b60006002820490506001821680620000e157607f821691505b602082108103620000f757620000f662000099565b5b50919050565b60008190508160005260206000209050919050565b60006020601f8301049050919050565b600082821b905092915050565b600060088302620001617fffffffffffffffffffffffffffffffffffffffffffffffffffffffffffffffff8262000122565b6200016d868362000122565b95508019841693508086168417925050509392505050565b6000819050919050565b6000819050919050565b6000620001ba620001b4620001ae8462000185565b6200018f565b62000185565b9050919050565b6000819050919050565b620001d68362000199565b620001ee620001e582620001c1565b8484546200012f565b825550505050565b600090565b62000205620001f6565b62000212818484620001cb565b505050565b5b818110156200023a576200022e600082620001fb565b60018101905062000218565b5050565b601f82111562000289576200025381620000fd565b6200025e8462000112565b810160208510156200026e578190505b620002866200027d8562000112565b83018262000217565b50505b505050565b600082821c905092915050565b6000620002ae600019846008026200028e565b1980831691505092915050565b6000620002c983836200029b565b9150826002028217905092915050565b620002e4826200005f565b67ffffffffffffffff8111156200030057620002ff6200006a565b5b6200030c8254620000c8565b620003198282856200023e565b600060209050601f8311600181146200035157600084156200033c578287015190505b620003488582620002bb565b865550620003b8565b601f1984166200036186620000fd565b60005b828110156200038b5784890151825560018201915060208501945060208101905062000364565b86831015620003ab5784890151620003a7601f8916826200029b565b8355505b6001600288020188555050505b505050505050565b6107c780620003d06000396000f3fe608060405234801561001057600080fd5b50600436106100365760003560e01c80632113522a1461003b578063d3660c1c14610059575b600080fd5b610043610089565b6040516100509190610253565b60405180910390f35b610073600480360381019061006e91906103be565b610117565b6040516100809190610422565b60405180910390f35b600080546100969061046c565b80601f01602080910402602001604051908101604052809291908181526020018280546100c29061046c565b801561010f5780601f106100e45761010080835404028352916020019161010f565b820191906000526020600020905b8154815290600101906020018083116100f257829003601f168201915b505050505081565b600081600090816101289190610653565b50600082510361016d576040517f08c379a000000000000000000000000000000000000000000000000000000000815260040161016490610771565b60405180910390fd5b60008251116101b1576040517f08c379a00000000000000000000000000000000000000000000000000000000081526004016101a890610771565b60405180910390fd5b60019050919050565b600081519050919050565b600082825260208201905092915050565b60005b838110156101f45780820151818401526020810190506101d9565b83811115610203576000848401525b50505050565b6000601f19601f8301169050919050565b6000610225826101ba565b61022f81856101c5565b935061023f8185602086016101d6565b61024881610209565b840191505092915050565b6000602082019050818103600083015261026d818461021a565b905092915050565b6000604051905090565b600080fd5b600080fd5b600080fd5b600080fd5b7f4e487b7100000000000000000000000000000000000000000000000000000000600052604160045260246000fd5b6102cb82610209565b810181811067ffffffffffffffff821117156102ea576102e9610293565b5b80604052505050565b60006102fd610275565b905061030982826102c2565b919050565b600067ffffffffffffffff82111561032957610328610293565b5b61033282610209565b9050602081019050919050565b82818337600083830152505050565b600061036161035c8461030e565b6102f3565b90508281526020810184848401111561037d5761037c61028e565b5b61038884828561033f565b509392505050565b600082601f8301126103a5576103a4610289565b5b81356103b584826020860161034e565b91505092915050565b6000602082840312156103d4576103d361027f565b5b600082013567ffffffffffffffff8111156103f2576103f1610284565b5b6103fe84828501610390565b91505092915050565b60008115159050919050565b61041c81610407565b82525050565b60006020820190506104376000830184610413565b92915050565b7f4e487b7100000000000000000000000000000000000000000000000000000000600052602260045260246000fd5b6000600282049050600182168061048457607f821691505b6020821081036104975761049661043d565b5b50919050565b60008190508160005260206000209050919050565b60006020601f8301049050919050565b600082821b905092915050565b6000600883026104ff7fffffffffffffffffffffffffffffffffffffffffffffffffffffffffffffffff826104c2565b61050986836104c2565b95508019841693508086168417925050509392505050565b6000819050919050565b6000819050919050565b600061055061054b61054684610521565b61052b565b610521565b9050919050565b6000819050919050565b61056a83610535565b61057e61057682610557565b8484546104cf565b825550505050565b600090565b610593610586565b61059e818484610561565b505050565b5b818110156105c2576105b760008261058b565b6001810190506105a4565b5050565b601f821115610607576105d88161049d565b6105e1846104b2565b810160208510156105f0578190505b6106046105fc856104b2565b8301826105a3565b50505b505050565b600082821c905092915050565b600061062a6000198460080261060c565b1980831691505092915050565b60006106438383610619565b9150826002028217905092915050565b61065c826101ba565b67ffffffffffffffff81111561067557610674610293565b5b61067f825461046c565b61068a8282856105c6565b600060209050601f8311600181146106bd57600084156106ab578287015190505b6106b58582610637565b86555061071d565b601f1984166106cb8661049d565b60005b828110156106f3578489015182556001820191506020850194506020810190506106ce565b86831015610710578489015161070c601f891682610619565b8355505b6001600288020188555050505b505050505050565b7f546865206c656e677468206f662074686520737472696e67206973207a65726f600082015250565b600061075b6020836101c5565b915061076682610725565b602082019050919050565b6000602082019050818103600083015261078a8161074e565b905091905056fea26469706673582212200a961f615735e147ca2b6672a2b5db21a96f9b5d33d4a9c7fb9c69cd6c015eea64736f6c634300080f0033",
  "immutableReferences": {},
  "source": "// SPDX-License-Identifier: MIT\npragma solidity >=0.4.22 <0.9.0;\n\ncontract ExceptionsContract {\n\n    // Public variable lastCaller, with a value of none\n    string  public lastCaller = \"none\";\n\n    // Function revertBehavior that takes in a name as an argument,\n    //and sets the lastCaller variable to this argument received\n    function  revertBehavior(string memory name) public returns (bool) {\n        lastCaller = name;\n\n        // Check if length of the string is zero\n        // If the argument received has zero length, it throws an exception...\n        // Once an exception is thrown, the variable lastCaller rolls back to its initial value\n        if (bytes(name).length == 0) {\n            revert(\"The length of the string is zero\");\n        }\n        // This is the same thing...just using require to check the length of the input string.\n        // The code will only be exceuted if the length is greater than 0\n        // The above lines of code may be replaced with this\n        require(bytes(name).length > 0, \"The length of the string is zero\");\n\n        return true;\n    }\n\n}",
  "sourcePath": "/home/isma/Desktop/code/blockchain/test-smartcontracts/contracts/ExceptionsContract.sol",
  "compiler": {
    "name": "solc",
    "version": "0.8.15+commit.e14f2714.Emscripten.clang"
  },
  "schemaVersion": "3.4.8",
  "updatedAt": "2022-08-11T07:31:23.682Z",
  "devdoc": {
    "kind": "dev",
    "methods": {},
    "version": 1
  },
  "userdoc": {
    "kind": "user",
    "methods": {},
    "version": 1
  }
}