{
  "contractName": "GlobalVariables",
  "abi": [
    {
      "inputs": [],
      "name": "lastCaller",
      "outputs": [
        {
          "internalType": "string",
          "name": "",
          "type": "string"
        }
      ],
      "stateMutability": "view",
      "type": "function"
    },
    {
      "inputs": [],
      "name": "etherUnitsTest",
      "outputs": [
        {
          "internalType": "bool",
          "name": "",
          "type": "bool"
        }
      ],
      "stateMutability": "pure",
      "type": "function"
    },
    {
      "inputs": [],
      "name": "timeUnits",
      "outputs": [
        {
          "internalType": "uint256",
          "name": "",
          "type": "uint256"
        }
      ],
      "stateMutability": "view",
      "type": "function"
    },
    {
      "inputs": [],
      "name": "getBlockInformation",
      "outputs": [
        {
          "internalType": "uint256",
          "name": "number",
          "type": "uint256"
        },
        {
          "internalType": "bytes32",
          "name": "hash",
          "type": "bytes32"
        },
        {
          "internalType": "address",
          "name": "coinbase",
          "type": "address"
        },
        {
          "internalType": "uint256",
          "name": "difficulty",
          "type": "uint256"
        }
      ],
      "stateMutability": "view",
      "type": "function"
    },
    {
      "inputs": [],
      "name": "getMsgInformation",
      "outputs": [
        {
          "internalType": "bytes",
          "name": "data",
          "type": "bytes"
        },
        {
          "internalType": "bytes4",
          "name": "sig",
          "type": "bytes4"
        },
        {
          "internalType": "address",
          "name": "sender",
          "type": "address"
        }
      ],
      "stateMutability": "view",
      "type": "function"
    }
  ],
  "bytecode": "0x60806040526040518060400160405280600781526020017f6e6f742d73657400000000000000000000000000000000000000000000000000815250600090816200004a9190620002d9565b503480156200005857600080fd5b50620003c0565b600081519050919050565b7f4e487b7100000000000000000000000000000000000000000000000000000000600052604160045260246000fd5b7f4e487b7100000000000000000000000000000000000000000000000000000000600052602260045260246000fd5b60006002820490506001821680620000e157607f821691505b602082108103620000f757620000f662000099565b5b50919050565b60008190508160005260206000209050919050565b60006020601f8301049050919050565b600082821b905092915050565b600060088302620001617fffffffffffffffffffffffffffffffffffffffffffffffffffffffffffffffff8262000122565b6200016d868362000122565b95508019841693508086168417925050509392505050565b6000819050919050565b6000819050919050565b6000620001ba620001b4620001ae8462000185565b6200018f565b62000185565b9050919050565b6000819050919050565b620001d68362000199565b620001ee620001e582620001c1565b8484546200012f565b825550505050565b600090565b62000205620001f6565b62000212818484620001cb565b505050565b5b818110156200023a576200022e600082620001fb565b60018101905062000218565b5050565b601f82111562000289576200025381620000fd565b6200025e8462000112565b810160208510156200026e578190505b620002866200027d8562000112565b83018262000217565b50505b505050565b600082821c905092915050565b6000620002ae600019846008026200028e565b1980831691505092915050565b6000620002c983836200029b565b9150826002028217905092915050565b620002e4826200005f565b67ffffffffffffffff8111156200030057620002ff6200006a565b5b6200030c8254620000c8565b620003198282856200023e565b600060209050601f8311600181146200035157600084156200033c578287015190505b620003488582620002bb565b865550620003b8565b601f1984166200036186620000fd565b60005b828110156200038b5784890151825560018201915060208501945060208101905062000364565b86831015620003ab5784890151620003a7601f8916826200029b565b8355505b6001600288020188555050505b505050505050565b6105ec80620003d06000396000f3fe608060405234801561001057600080fd5b50600436106100575760003560e01c80630c3174381461005c5780632113522a1461007a5780638e663b061461009857806391ac446b146100b8578063de7066f1146100d6575b600080fd5b6100646100f7565b604051610071919061027c565b60405180910390f35b610082610113565b60405161008f9190610330565b60405180910390f35b6100a06101a1565b6040516100af93929190610423565b60405180910390f35b6100c061021d565b6040516100cd919061047a565b60405180910390f35b6100de61023c565b6040516100ee94939291906104ae565b60405180910390f35b60008064e8d4a51000670de0b6b3a76400001490508091505090565b6000805461012090610522565b80601f016020809104026020016040519081016040528092919081815260200182805461014c90610522565b80156101995780601f1061016e57610100808354040283529160200191610199565b820191906000526020600020905b81548152906001019060200180831161017c57829003601f168201915b505050505081565b60606000806000368080601f016020809104026020016040519081016040528093929190818152602001838380828437600081840152601f19601f8201169050808301925050505050505092506000357fffffffff00000000000000000000000000000000000000000000000000000000169150339050909192565b6000804290506305265c0081036102375780915050610239565b505b90565b6000806000804393506001846102529190610582565b40925041915044905090919293565b60008115159050919050565b61027681610261565b82525050565b6000602082019050610291600083018461026d565b92915050565b600081519050919050565b600082825260208201905092915050565b60005b838110156102d15780820151818401526020810190506102b6565b838111156102e0576000848401525b50505050565b6000601f19601f8301169050919050565b600061030282610297565b61030c81856102a2565b935061031c8185602086016102b3565b610325816102e6565b840191505092915050565b6000602082019050818103600083015261034a81846102f7565b905092915050565b600081519050919050565b600082825260208201905092915050565b600061037982610352565b610383818561035d565b93506103938185602086016102b3565b61039c816102e6565b840191505092915050565b60007fffffffff0000000000000000000000000000000000000000000000000000000082169050919050565b6103dc816103a7565b82525050565b600073ffffffffffffffffffffffffffffffffffffffff82169050919050565b600061040d826103e2565b9050919050565b61041d81610402565b82525050565b6000606082019050818103600083015261043d818661036e565b905061044c60208301856103d3565b6104596040830184610414565b949350505050565b6000819050919050565b61047481610461565b82525050565b600060208201905061048f600083018461046b565b92915050565b6000819050919050565b6104a881610495565b82525050565b60006080820190506104c3600083018761046b565b6104d0602083018661049f565b6104dd6040830185610414565b6104ea606083018461046b565b95945050505050565b7f4e487b7100000000000000000000000000000000000000000000000000000000600052602260045260246000fd5b6000600282049050600182168061053a57607f821691505b60208210810361054d5761054c6104f3565b5b50919050565b7f4e487b7100000000000000000000000000000000000000000000000000000000600052601160045260246000fd5b600061058d82610461565b915061059883610461565b9250828210156105ab576105aa610553565b5b82820390509291505056fea2646970667358221220e7ffb310b740d6ccb65bebfe6f33bff6c2be1efbc44c119b877e31d1971f64f464736f6c634300080f0033",
  "immutableReferences": {},
  "source": "// SPDX-License-Identifier: MIT\npragma solidity >=0.4.22 <0.9.0;\n\ncontract GlobalVariables {\n\n    string  public lastCaller = \"not-set\";\n\n    // Demonstrates the use of the ether subdenominations\n    function etherUnitsTest() public pure returns(bool) {\n        // True\n        bool value = (1 ether == 1000 gwei);\n        return value;\n    }\n\n    // Demonstrates the use of the time units\n    function  timeUnits() public view returns (uint) {\n        uint timeNow = block.timestamp; //storing current time using now\n        //returns block time in seconds since 1970\n        if (timeNow == 1000 days) { // converting 1000 literal to days, using the suffix days\n            return timeNow;\n        }\n    }\n\n    // Demonstrates the use of block object\n    function  getBlockInformation() public view returns (uint number, bytes32 hash, address coinbase, uint difficulty) {\n        number = block.number; // Previous block\n        hash = blockhash(number - 1); // -1 because excluding current...same as block.blockhash()\n        // Current block\n        coinbase = block.coinbase;\n        difficulty = block.difficulty;\n    }\n\n    // Demonstrates the use of the msg object\n    function getMsgInformation() public view returns (bytes memory data, bytes4 sig, address sender) {\n        data = msg.data;\n        sig = msg.sig;\n        sender = msg.sender;\n    }\n\n}",
  "sourcePath": "/home/isma/Desktop/code/blockchain/test-smartcontracts/contracts/GlobalVariablesContract.sol",
  "compiler": {
    "name": "solc",
    "version": "0.8.15+commit.e14f2714.Emscripten.clang"
  },
  "schemaVersion": "3.4.8",
  "updatedAt": "2022-08-11T07:31:23.686Z",
  "devdoc": {
    "kind": "dev",
    "methods": {},
    "version": 1
  },
  "userdoc": {
    "kind": "user",
    "methods": {},
    "version": 1
  }
}