{
  "contractName": "MappingContract",
  "abi": [
    {
      "inputs": [
        {
          "internalType": "string",
          "name": "name",
          "type": "string"
        },
        {
          "internalType": "string",
          "name": "relation",
          "type": "string"
        }
      ],
      "name": "addRelation",
      "outputs": [],
      "stateMutability": "nonpayable",
      "type": "function"
    },
    {
      "inputs": [
        {
          "internalType": "string",
          "name": "name",
          "type": "string"
        }
      ],
      "name": "getRelation",
      "outputs": [
        {
          "internalType": "string",
          "name": "",
          "type": "string"
        }
      ],
      "stateMutability": "view",
      "type": "function"
    },
    {
      "inputs": [
        {
          "internalType": "string",
          "name": "name",
          "type": "string"
        }
      ],
      "name": "removeRelation",
      "outputs": [],
      "stateMutability": "nonpayable",
      "type": "function"
    }
  ],
  "bytecode": "0x608060405234801561001057600080fd5b5061084e806100206000396000f3fe608060405234801561001057600080fd5b50600436106100415760003560e01c80635169a70d146100465780636d6e409a14610062578063f31907b71461007e575b600080fd5b610060600480360381019061005b9190610372565b6100ae565b005b61007c600480360381019061007791906103ea565b6100de565b005b610098600480360381019061009391906103ea565b61010b565b6040516100a591906104bb565b60405180910390f35b806000836040516100bf9190610519565b908152602001604051809103902090816100d99190610746565b505050565b6000816040516100ee9190610519565b9081526020016040518091039020600061010891906101bb565b50565b606060008260405161011d9190610519565b908152602001604051809103902080546101369061055f565b80601f01602080910402602001604051908101604052809291908181526020018280546101629061055f565b80156101af5780601f10610184576101008083540402835291602001916101af565b820191906000526020600020905b81548152906001019060200180831161019257829003601f168201915b50505050509050919050565b5080546101c79061055f565b6000825580601f106101d957506101f8565b601f0160209004906000526020600020908101906101f791906101fb565b5b50565b5b808211156102145760008160009055506001016101fc565b5090565b6000604051905090565b600080fd5b600080fd5b600080fd5b600080fd5b6000601f19601f8301169050919050565b7f4e487b7100000000000000000000000000000000000000000000000000000000600052604160045260246000fd5b61027f82610236565b810181811067ffffffffffffffff8211171561029e5761029d610247565b5b80604052505050565b60006102b1610218565b90506102bd8282610276565b919050565b600067ffffffffffffffff8211156102dd576102dc610247565b5b6102e682610236565b9050602081019050919050565b82818337600083830152505050565b6000610315610310846102c2565b6102a7565b90508281526020810184848401111561033157610330610231565b5b61033c8482856102f3565b509392505050565b600082601f8301126103595761035861022c565b5b8135610369848260208601610302565b91505092915050565b6000806040838503121561038957610388610222565b5b600083013567ffffffffffffffff8111156103a7576103a6610227565b5b6103b385828601610344565b925050602083013567ffffffffffffffff8111156103d4576103d3610227565b5b6103e085828601610344565b9150509250929050565b600060208284031215610400576103ff610222565b5b600082013567ffffffffffffffff81111561041e5761041d610227565b5b61042a84828501610344565b91505092915050565b600081519050919050565b600082825260208201905092915050565b60005b8381101561046d578082015181840152602081019050610452565b8381111561047c576000848401525b50505050565b600061048d82610433565b610497818561043e565b93506104a781856020860161044f565b6104b081610236565b840191505092915050565b600060208201905081810360008301526104d58184610482565b905092915050565b600081905092915050565b60006104f382610433565b6104fd81856104dd565b935061050d81856020860161044f565b80840191505092915050565b600061052582846104e8565b915081905092915050565b7f4e487b7100000000000000000000000000000000000000000000000000000000600052602260045260246000fd5b6000600282049050600182168061057757607f821691505b60208210810361058a57610589610530565b5b50919050565b60008190508160005260206000209050919050565b60006020601f8301049050919050565b600082821b905092915050565b6000600883026105f27fffffffffffffffffffffffffffffffffffffffffffffffffffffffffffffffff826105b5565b6105fc86836105b5565b95508019841693508086168417925050509392505050565b6000819050919050565b6000819050919050565b600061064361063e61063984610614565b61061e565b610614565b9050919050565b6000819050919050565b61065d83610628565b6106716106698261064a565b8484546105c2565b825550505050565b600090565b610686610679565b610691818484610654565b505050565b5b818110156106b5576106aa60008261067e565b600181019050610697565b5050565b601f8211156106fa576106cb81610590565b6106d4846105a5565b810160208510156106e3578190505b6106f76106ef856105a5565b830182610696565b50505b505050565b600082821c905092915050565b600061071d600019846008026106ff565b1980831691505092915050565b6000610736838361070c565b9150826002028217905092915050565b61074f82610433565b67ffffffffffffffff81111561076857610767610247565b5b610772825461055f565b61077d8282856106b9565b600060209050601f8311600181146107b0576000841561079e578287015190505b6107a8858261072a565b865550610810565b601f1984166107be86610590565b60005b828110156107e6578489015182556001820191506020850194506020810190506107c1565b8683101561080357848901516107ff601f89168261070c565b8355505b6001600288020188555050505b50505050505056fea26469706673582212208936eb58b9bcd8ad5754c1746d6c77d597e28234a2c8c235c07cb4dd3915060264736f6c634300080f0033",
  "immutableReferences": {},
  "source": "// SPDX-License-Identifier: MIT\npragma solidity >=0.4.22 <0.9.0;\n\ncontract MappingContract {\n    \n    // Creates in Storage\n    mapping(string => string) relations;\n\n    // Add a relation\n    function addRelation(string memory name, string memory relation) public {\n        // Store the relation\n        relations[name] = relation;\n    }\n\n    // Returns a Relation\n    function getRelation(string memory name) public view returns (string memory){\n        return relations[name];\n    }\n\n    // Remove the key value pair from the mapping\n    function removeRelation(string memory name) public {\n        delete(relations[name]);\n    }\n}",
  "sourcePath": "/home/isma/Desktop/code/blockchain/test-smartcontracts/contracts/MappingContract.sol",
  "compiler": {
    "name": "solc",
    "version": "0.8.15+commit.e14f2714.Emscripten.clang"
  },
  "schemaVersion": "3.4.8",
  "updatedAt": "2022-08-10T15:32:54.198Z",
  "devdoc": {
    "kind": "dev",
    "methods": {},
    "version": 1
  },
  "userdoc": {
    "kind": "user",
    "methods": {},
    "version": 1
  }
}