{
  "contractName": "StringContract",
  "abi": [
    {
      "inputs": [],
      "stateMutability": "nonpayable",
      "type": "constructor"
    },
    {
      "inputs": [],
      "name": "manager",
      "outputs": [
        {
          "internalType": "address",
          "name": "",
          "type": "address"
        }
      ],
      "stateMutability": "view",
      "type": "function"
    },
    {
      "inputs": [],
      "name": "getManager",
      "outputs": [
        {
          "internalType": "address",
          "name": "",
          "type": "address"
        }
      ],
      "stateMutability": "view",
      "type": "function"
    },
    {
      "inputs": [
        {
          "internalType": "string",
          "name": "str",
          "type": "string"
        },
        {
          "internalType": "uint256",
          "name": "startIndex",
          "type": "uint256"
        },
        {
          "internalType": "uint256",
          "name": "endIndex",
          "type": "uint256"
        }
      ],
      "name": "subString",
      "outputs": [
        {
          "internalType": "string",
          "name": "",
          "type": "string"
        }
      ],
      "stateMutability": "pure",
      "type": "function"
    }
  ],
  "bytecode": "0x608060405234801561001057600080fd5b50336000806101000a81548173ffffffffffffffffffffffffffffffffffffffff021916908373ffffffffffffffffffffffffffffffffffffffff160217905550610610806100606000396000f3fe608060405234801561001057600080fd5b50600436106100415760003560e01c8063481c6a75146100465780637966c43114610064578063d500958414610094575b600080fd5b61004e6100b2565b60405161005b919061023c565b60405180910390f35b61007e600480360381019061007991906103e7565b6100d6565b60405161008b91906104de565b60405180910390f35b61009c6101d2565b6040516100a9919061023c565b60405180910390f35b60008054906101000a900473ffffffffffffffffffffffffffffffffffffffff1681565b60606000849050600084846100eb919061052f565b67ffffffffffffffff81111561010457610103610286565b5b6040519080825280601f01601f1916602001820160405280156101365781602001600182028036833780820191505090505b50905060008590505b848110156101c55782818151811061015a57610159610563565b5b602001015160f81c60f81b828783610172919061052f565b8151811061018357610182610563565b5b60200101907effffffffffffffffffffffffffffffffffffffffffffffffffffffffffffff1916908160001a90535080806101bd90610592565b91505061013f565b5080925050509392505050565b60008060009054906101000a900473ffffffffffffffffffffffffffffffffffffffff16905090565b600073ffffffffffffffffffffffffffffffffffffffff82169050919050565b6000610226826101fb565b9050919050565b6102368161021b565b82525050565b6000602082019050610251600083018461022d565b92915050565b6000604051905090565b600080fd5b600080fd5b600080fd5b600080fd5b6000601f19601f8301169050919050565b7f4e487b7100000000000000000000000000000000000000000000000000000000600052604160045260246000fd5b6102be82610275565b810181811067ffffffffffffffff821117156102dd576102dc610286565b5b80604052505050565b60006102f0610257565b90506102fc82826102b5565b919050565b600067ffffffffffffffff82111561031c5761031b610286565b5b61032582610275565b9050602081019050919050565b82818337600083830152505050565b600061035461034f84610301565b6102e6565b9050828152602081018484840111156103705761036f610270565b5b61037b848285610332565b509392505050565b600082601f8301126103985761039761026b565b5b81356103a8848260208601610341565b91505092915050565b6000819050919050565b6103c4816103b1565b81146103cf57600080fd5b50565b6000813590506103e1816103bb565b92915050565b600080600060608486031215610400576103ff610261565b5b600084013567ffffffffffffffff81111561041e5761041d610266565b5b61042a86828701610383565b935050602061043b868287016103d2565b925050604061044c868287016103d2565b9150509250925092565b600081519050919050565b600082825260208201905092915050565b60005b83811015610490578082015181840152602081019050610475565b8381111561049f576000848401525b50505050565b60006104b082610456565b6104ba8185610461565b93506104ca818560208601610472565b6104d381610275565b840191505092915050565b600060208201905081810360008301526104f881846104a5565b905092915050565b7f4e487b7100000000000000000000000000000000000000000000000000000000600052601160045260246000fd5b600061053a826103b1565b9150610545836103b1565b92508282101561055857610557610500565b5b828203905092915050565b7f4e487b7100000000000000000000000000000000000000000000000000000000600052603260045260246000fd5b600061059d826103b1565b91507fffffffffffffffffffffffffffffffffffffffffffffffffffffffffffffffff82036105cf576105ce610500565b5b60018201905091905056fea2646970667358221220155149af261f313397ca1f722bd23c7a496eb9894cc3d2dc0f8c91c67c83bb4964736f6c634300080f0033",
  "immutableReferences": {},
  "source": "// SPDX-License-Identifier: MIT\npragma solidity >=0.4.22 <0.9.0;\n\ncontract StringContract {\n\n    address public manager;\n\n    constructor() {\n        manager = msg.sender;\n    }\n\n    function getManager() public view returns(address) {\n        return manager;\n    }\n\n    function subString(string memory str, uint startIndex, uint endIndex) public pure returns(string memory) {\n        bytes memory strBytes = bytes(str);\n        bytes memory result = new bytes(endIndex-startIndex);\n        for(uint i = startIndex; i < endIndex; i++) {\n            result[i-startIndex] = strBytes[i];\n        }\n        return string(result);\n    }\n}\n",
  "sourcePath": "/home/isma/Desktop/code/blockchain/test-smartcontracts/contracts/StringContract.sol",
  "compiler": {
    "name": "solc",
    "version": "0.8.15+commit.e14f2714.Emscripten.clang"
  },
  "schemaVersion": "3.4.8",
  "updatedAt": "2022-08-10T15:19:43.273Z",
  "devdoc": {
    "kind": "dev",
    "methods": {},
    "version": 1
  },
  "userdoc": {
    "kind": "user",
    "methods": {},
    "version": 1
  }
}