{
  "contractName": "StringContract",
  "abi": [
    {
      "inputs": [],
      "stateMutability": "nonpayable",
      "type": "constructor"
    },
    {
      "inputs": [],
      "name": "manager",
      "outputs": [
        {
          "internalType": "address",
          "name": "",
          "type": "address"
        }
      ],
      "stateMutability": "view",
      "type": "function"
    },
    {
      "inputs": [
        {
          "internalType": "string",
          "name": "str",
          "type": "string"
        },
        {
          "internalType": "uint256",
          "name": "startIndex",
          "type": "uint256"
        },
        {
          "internalType": "uint256",
          "name": "endIndex",
          "type": "uint256"
        }
      ],
      "name": "subString",
      "outputs": [
        {
          "internalType": "string",
          "name": "",
          "type": "string"
        }
      ],
      "stateMutability": "pure",
      "type": "function"
    }
  ],
  "bytecode": "0x608060405234801561001057600080fd5b50336000806101000a81548173ffffffffffffffffffffffffffffffffffffffff021916908373ffffffffffffffffffffffffffffffffffffffff1602179055506105be806100606000396000f3fe608060405234801561001057600080fd5b50600436106100365760003560e01c8063481c6a751461003b5780637966c43114610059575b600080fd5b610043610089565b60405161005091906101ea565b60405180910390f35b610073600480360381019061006e9190610395565b6100ad565b604051610080919061048c565b60405180910390f35b60008054906101000a900473ffffffffffffffffffffffffffffffffffffffff1681565b60606000849050600084846100c291906104dd565b67ffffffffffffffff8111156100db576100da610234565b5b6040519080825280601f01601f19166020018201604052801561010d5781602001600182028036833780820191505090505b50905060008590505b8481101561019c5782818151811061013157610130610511565b5b602001015160f81c60f81b82878361014991906104dd565b8151811061015a57610159610511565b5b60200101907effffffffffffffffffffffffffffffffffffffffffffffffffffffffffffff1916908160001a905350808061019490610540565b915050610116565b5080925050509392505050565b600073ffffffffffffffffffffffffffffffffffffffff82169050919050565b60006101d4826101a9565b9050919050565b6101e4816101c9565b82525050565b60006020820190506101ff60008301846101db565b92915050565b6000604051905090565b600080fd5b600080fd5b600080fd5b600080fd5b6000601f19601f8301169050919050565b7f4e487b7100000000000000000000000000000000000000000000000000000000600052604160045260246000fd5b61026c82610223565b810181811067ffffffffffffffff8211171561028b5761028a610234565b5b80604052505050565b600061029e610205565b90506102aa8282610263565b919050565b600067ffffffffffffffff8211156102ca576102c9610234565b5b6102d382610223565b9050602081019050919050565b82818337600083830152505050565b60006103026102fd846102af565b610294565b90508281526020810184848401111561031e5761031d61021e565b5b6103298482856102e0565b509392505050565b600082601f83011261034657610345610219565b5b81356103568482602086016102ef565b91505092915050565b6000819050919050565b6103728161035f565b811461037d57600080fd5b50565b60008135905061038f81610369565b92915050565b6000806000606084860312156103ae576103ad61020f565b5b600084013567ffffffffffffffff8111156103cc576103cb610214565b5b6103d886828701610331565b93505060206103e986828701610380565b92505060406103fa86828701610380565b9150509250925092565b600081519050919050565b600082825260208201905092915050565b60005b8381101561043e578082015181840152602081019050610423565b8381111561044d576000848401525b50505050565b600061045e82610404565b610468818561040f565b9350610478818560208601610420565b61048181610223565b840191505092915050565b600060208201905081810360008301526104a68184610453565b905092915050565b7f4e487b7100000000000000000000000000000000000000000000000000000000600052601160045260246000fd5b60006104e88261035f565b91506104f38361035f565b925082821015610506576105056104ae565b5b828203905092915050565b7f4e487b7100000000000000000000000000000000000000000000000000000000600052603260045260246000fd5b600061054b8261035f565b91507fffffffffffffffffffffffffffffffffffffffffffffffffffffffffffffffff820361057d5761057c6104ae565b5b60018201905091905056fea2646970667358221220cb39912c1f92b25844cd222e11afd9ef375b43c4a3ab556dc9687f16c9bfc1d564736f6c634300080f0033",
  "immutableReferences": {},
  "source": "// SPDX-License-Identifier: MIT\npragma solidity >=0.4.22 <0.9.0;\n\ncontract StringContract {\n\n    address public manager;\n\n    constructor() {\n        manager = msg.sender;\n    }\n\n    function subString(string memory str, uint startIndex, uint endIndex) public pure returns(string memory) {\n        bytes memory strBytes = bytes(str);\n        bytes memory result = new bytes(endIndex-startIndex);\n        for(uint i = startIndex; i < endIndex; i++) {\n            result[i-startIndex] = strBytes[i];\n        }\n        return string(result);\n    }\n}\n",
  "sourcePath": "/home/isma/Desktop/code/blockchain/test-smartcontracts/contracts/StringContract.sol",
  "compiler": {
    "name": "solc",
    "version": "0.8.15+commit.e14f2714.Emscripten.clang"
  },
  "schemaVersion": "3.4.8",
  "updatedAt": "2022-08-11T07:31:23.697Z",
  "devdoc": {
    "kind": "dev",
    "methods": {},
    "version": 1
  },
  "userdoc": {
    "kind": "user",
    "methods": {},
    "version": 1
  }
}