{
  "contractName": "StructsContract",
  "abi": [
    {
      "inputs": [
        {
          "internalType": "bytes32",
          "name": "name",
          "type": "bytes32"
        }
      ],
      "name": "getName",
      "outputs": [
        {
          "internalType": "bytes32",
          "name": "",
          "type": "bytes32"
        },
        {
          "internalType": "uint16",
          "name": "",
          "type": "uint16"
        }
      ],
      "stateMutability": "view",
      "type": "function"
    },
    {
      "inputs": [
        {
          "internalType": "bytes32",
          "name": "_lastName",
          "type": "bytes32"
        },
        {
          "internalType": "uint8",
          "name": "_value",
          "type": "uint8"
        },
        {
          "internalType": "uint16",
          "name": "_age",
          "type": "uint16"
        }
      ],
      "name": "addName",
      "outputs": [
        {
          "internalType": "bool",
          "name": "",
          "type": "bool"
        }
      ],
      "stateMutability": "nonpayable",
      "type": "function"
    }
  ],
  "bytecode": "0x608060405234801561001057600080fd5b5061055e806100206000396000f3fe608060405234801561001057600080fd5b50600436106100365760003560e01c806354b8d5e31461003b5780636af75d2a1461006c575b600080fd5b61005560048036038101906100509190610331565b61009c565b60405161006392919061038a565b60405180910390f35b61008660048036038101906100819190610418565b61016c565b6040516100939190610486565b60405180910390f35b60008060005b6000805490508160ff16101561015e5760008160ff16815481106100c9576100c86104a1565b5b906000526020600020906003020160000154840361014b5760008160ff16815481106100f8576100f76104a1565b5b90600052602060002090600302016000015460008260ff1681548110610121576101206104a1565b5b906000526020600020906003020160020160009054906101000a900461ffff169250925050610167565b8080610156906104ff565b9150506100a2565b50600080915091505b915091565b600061017661027f565b848160000181815250508381602001516000019060ff16908160ff168152505082816040019061ffff16908161ffff168152505060008190806001815401808255809150506001900390600052602060002090600302016000909190919091506000820151816000015560208201518160010160008201518160000160006101000a81548160ff021916908360ff16021790555060208201518160000160016101000a81548160ff021916908360ff16021790555060408201518160000160026101000a81548160ff021916908360f81c0217905550505060408201518160020160006101000a81548161ffff021916908361ffff160217905550505060019150509392505050565b60405180606001604052806000801916815260200161029c6102ad565b8152602001600061ffff1681525090565b6040518060600160405280600060ff168152602001600060ff16815260200160007effffffffffffffffffffffffffffffffffffffffffffffffffffffffffffff191681525090565b600080fd5b6000819050919050565b61030e816102fb565b811461031957600080fd5b50565b60008135905061032b81610305565b92915050565b600060208284031215610347576103466102f6565b5b60006103558482850161031c565b91505092915050565b610367816102fb565b82525050565b600061ffff82169050919050565b6103848161036d565b82525050565b600060408201905061039f600083018561035e565b6103ac602083018461037b565b9392505050565b600060ff82169050919050565b6103c9816103b3565b81146103d457600080fd5b50565b6000813590506103e6816103c0565b92915050565b6103f58161036d565b811461040057600080fd5b50565b600081359050610412816103ec565b92915050565b600080600060608486031215610431576104306102f6565b5b600061043f8682870161031c565b9350506020610450868287016103d7565b925050604061046186828701610403565b9150509250925092565b60008115159050919050565b6104808161046b565b82525050565b600060208201905061049b6000830184610477565b92915050565b7f4e487b7100000000000000000000000000000000000000000000000000000000600052603260045260246000fd5b7f4e487b7100000000000000000000000000000000000000000000000000000000600052601160045260246000fd5b600061050a826103b3565b915060ff820361051d5761051c6104d0565b5b60018201905091905056fea26469706673582212203a1a801769a683770c29ceb1f4911e161f903a088cf03f4f0553ad4bf2134d2f64736f6c634300080f0033",
  "immutableReferences": {},
  "source": "// SPDX-License-Identifier: MIT\npragma solidity >=0.4.22 <0.9.0;\n\ncontract StructsContract {\n\n    struct house {\n        uint8 portal;\n        uint8 floor;\n        bytes1 letter;\n    }\n\n    // Family\n    struct Family {\n        bytes32 lastName;\n        house houseInfo;\n        uint16 age;\n    }\n\n    // Creating an array of type family..which is a struct\n    Family[] myFamily;\n\n    // Getting a lastName, and returning complete family details\n    // We cannot compare 2 strings in solidity... that's why we use byte32\n    function getName(bytes32 name) public view returns (bytes32, uint16) {\n        // Search the array\n        for(uint8 i = 0; i < myFamily.length; i++){\n            if(name == myFamily[i].lastName) {\n                return (myFamily[i].lastName, myFamily[i].age);\n            }\n        }\n        return('',0);\n    }\n\n    // Structs Cannot be passed as argument so we are passing all elements/attributes of struct as args\n    function addName(bytes32 _lastName, uint8 _value, uint16 _age) public returns (bool) {\n        // Declare the struct variable in memory...\n        Family memory newFamily;\n        //  use the . notation to access members of a struct\n        newFamily.lastName = _lastName;\n        newFamily.houseInfo.portal = _value;\n        newFamily.age = _age;\n        // Push the newFamily struct...into our myFamily array\n        myFamily.push(newFamily);\n        return true;\n    }\n}",
  "sourcePath": "/home/isma/Desktop/code/blockchain/test-smartcontracts/contracts/StructContract.sol",
  "compiler": {
    "name": "solc",
    "version": "0.8.15+commit.e14f2714.Emscripten.clang"
  },
  "schemaVersion": "3.4.8",
  "updatedAt": "2022-08-10T16:04:09.449Z",
  "devdoc": {
    "kind": "dev",
    "methods": {},
    "version": 1
  },
  "userdoc": {
    "kind": "user",
    "methods": {},
    "version": 1
  }
}